{
  "_format": "hh-sol-artifact-1",
  "contractName": "TuneChain",
  "sourceName": "contracts/TuneChain.sol",
  "abi": [
    {
      "inputs": [],
      "stateMutability": "nonpayable",
      "type": "constructor"
    },
    {
      "anonymous": false,
      "inputs": [
        {
          "indexed": false,
          "internalType": "string",
          "name": "title",
          "type": "string"
        },
        {
          "indexed": false,
          "internalType": "string",
          "name": "artist",
          "type": "string"
        },
        {
          "indexed": false,
          "internalType": "uint256",
          "name": "plays",
          "type": "uint256"
        },
        {
          "indexed": false,
          "internalType": "uint256",
          "name": "revenue",
          "type": "uint256"
        },
        {
          "indexed": false,
          "internalType": "uint256",
          "name": "timestamp",
          "type": "uint256"
        }
      ],
      "name": "RevenueRegistered",
      "type": "event"
    },
    {
      "inputs": [],
      "name": "getRecordCount",
      "outputs": [
        {
          "internalType": "uint256",
          "name": "",
          "type": "uint256"
        }
      ],
      "stateMutability": "view",
      "type": "function"
    },
    {
      "inputs": [],
      "name": "owner",
      "outputs": [
        {
          "internalType": "address",
          "name": "",
          "type": "address"
        }
      ],
      "stateMutability": "view",
      "type": "function"
    },
    {
      "inputs": [
        {
          "internalType": "uint256",
          "name": "",
          "type": "uint256"
        }
      ],
      "name": "records",
      "outputs": [
        {
          "internalType": "string",
          "name": "title",
          "type": "string"
        },
        {
          "internalType": "string",
          "name": "artist",
          "type": "string"
        },
        {
          "internalType": "uint256",
          "name": "plays",
          "type": "uint256"
        },
        {
          "internalType": "uint256",
          "name": "revenue",
          "type": "uint256"
        },
        {
          "internalType": "uint256",
          "name": "timestamp",
          "type": "uint256"
        }
      ],
      "stateMutability": "view",
      "type": "function"
    },
    {
      "inputs": [
        {
          "internalType": "string",
          "name": "_title",
          "type": "string"
        },
        {
          "internalType": "string",
          "name": "_artist",
          "type": "string"
        },
        {
          "internalType": "uint256",
          "name": "_plays",
          "type": "uint256"
        },
        {
          "internalType": "uint256",
          "name": "_revenue",
          "type": "uint256"
        }
      ],
      "name": "registerRevenue",
      "outputs": [],
      "stateMutability": "nonpayable",
      "type": "function"
    }
  ],
  "bytecode": "0x608060405234801561001057600080fd5b5033600160006101000a81548173ffffffffffffffffffffffffffffffffffffffff021916908373ffffffffffffffffffffffffffffffffffffffff160217905550610b20806100616000396000f3fe608060405234801561001057600080fd5b506004361061004c5760003560e01c8063344610671461005157806387ee9285146100855780638da5cb5b146100a1578063ca267f28146100bf575b600080fd5b61006b60048036038101906100669190610428565b6100dd565b60405161007c9594939291906104f4565b60405180910390f35b61009f600480360381019061009a919061068a565b610233565b005b6100a96103ac565b6040516100b6919061076a565b60405180910390f35b6100c76103d2565b6040516100d49190610785565b60405180910390f35b600081815481106100ed57600080fd5b9060005260206000209060050201600091509050806000018054610110906107cf565b80601f016020809104026020016040519081016040528092919081815260200182805461013c906107cf565b80156101895780601f1061015e57610100808354040283529160200191610189565b820191906000526020600020905b81548152906001019060200180831161016c57829003601f168201915b50505050509080600101805461019e906107cf565b80601f01602080910402602001604051908101604052809291908181526020018280546101ca906107cf565b80156102175780601f106101ec57610100808354040283529160200191610217565b820191906000526020600020905b8154815290600101906020018083116101fa57829003601f168201915b5050505050908060020154908060030154908060040154905085565b600160009054906101000a900473ffffffffffffffffffffffffffffffffffffffff1673ffffffffffffffffffffffffffffffffffffffff163373ffffffffffffffffffffffffffffffffffffffff16146102c3576040517f08c379a00000000000000000000000000000000000000000000000000000000081526004016102ba9061084c565b60405180910390fd5b60006040518060a001604052808681526020018581526020018481526020018381526020014281525090506000819080600181540180825580915050600190039060005260206000209060050201600090919091909150600082015181600001908161032f9190610a18565b5060208201518160010190816103459190610a18565b5060408201518160020155606082015181600301556080820151816004015550507f1daf279613603aae4f98de34c613566eddfe36eca32e6744795447992b70f3ba858585854260405161039d9594939291906104f4565b60405180910390a15050505050565b600160009054906101000a900473ffffffffffffffffffffffffffffffffffffffff1681565b60008080549050905090565b6000604051905090565b600080fd5b600080fd5b6000819050919050565b610405816103f2565b811461041057600080fd5b50565b600081359050610422816103fc565b92915050565b60006020828403121561043e5761043d6103e8565b5b600061044c84828501610413565b91505092915050565b600081519050919050565b600082825260208201905092915050565b60005b8381101561048f578082015181840152602081019050610474565b60008484015250505050565b6000601f19601f8301169050919050565b60006104b782610455565b6104c18185610460565b93506104d1818560208601610471565b6104da8161049b565b840191505092915050565b6104ee816103f2565b82525050565b600060a082019050818103600083015261050e81886104ac565b9050818103602083015261052281876104ac565b905061053160408301866104e5565b61053e60608301856104e5565b61054b60808301846104e5565b9695505050505050565b600080fd5b600080fd5b7f4e487b7100000000000000000000000000000000000000000000000000000000600052604160045260246000fd5b6105978261049b565b810181811067ffffffffffffffff821117156105b6576105b561055f565b5b80604052505050565b60006105c96103de565b90506105d5828261058e565b919050565b600067ffffffffffffffff8211156105f5576105f461055f565b5b6105fe8261049b565b9050602081019050919050565b82818337600083830152505050565b600061062d610628846105da565b6105bf565b9050828152602081018484840111156106495761064861055a565b5b61065484828561060b565b509392505050565b600082601f83011261067157610670610555565b5b813561068184826020860161061a565b91505092915050565b600080600080608085870312156106a4576106a36103e8565b5b600085013567ffffffffffffffff8111156106c2576106c16103ed565b5b6106ce8782880161065c565b945050602085013567ffffffffffffffff8111156106ef576106ee6103ed565b5b6106fb8782880161065c565b935050604061070c87828801610413565b925050606061071d87828801610413565b91505092959194509250565b600073ffffffffffffffffffffffffffffffffffffffff82169050919050565b600061075482610729565b9050919050565b61076481610749565b82525050565b600060208201905061077f600083018461075b565b92915050565b600060208201905061079a60008301846104e5565b92915050565b7f4e487b7100000000000000000000000000000000000000000000000000000000600052602260045260246000fd5b600060028204905060018216806107e757607f821691505b6020821081036107fa576107f96107a0565b5b50919050565b7f4f6e6c79206f776e65722063616e20726567697374657220726576656e756500600082015250565b6000610836601f83610460565b915061084182610800565b602082019050919050565b6000602082019050818103600083015261086581610829565b9050919050565b60008190508160005260206000209050919050565b60006020601f8301049050919050565b600082821b905092915050565b6000600883026108ce7fffffffffffffffffffffffffffffffffffffffffffffffffffffffffffffffff82610891565b6108d88683610891565b95508019841693508086168417925050509392505050565b6000819050919050565b600061091561091061090b846103f2565b6108f0565b6103f2565b9050919050565b6000819050919050565b61092f836108fa565b61094361093b8261091c565b84845461089e565b825550505050565b600090565b61095861094b565b610963818484610926565b505050565b5b818110156109875761097c600082610950565b600181019050610969565b5050565b601f8211156109cc5761099d8161086c565b6109a684610881565b810160208510156109b5578190505b6109c96109c185610881565b830182610968565b50505b505050565b600082821c905092915050565b60006109ef600019846008026109d1565b1980831691505092915050565b6000610a0883836109de565b9150826002028217905092915050565b610a2182610455565b67ffffffffffffffff811115610a3a57610a3961055f565b5b610a4482546107cf565b610a4f82828561098b565b600060209050601f831160018114610a825760008415610a70578287015190505b610a7a85826109fc565b865550610ae2565b601f198416610a908661086c565b60005b82811015610ab857848901518255600182019150602085019450602081019050610a93565b86831015610ad55784890151610ad1601f8916826109de565b8355505b6001600288020188555050505b50505050505056fea2646970667358221220a29b7eeffaf1c5652cecd6cead21b86646fb3ca95211998cb760b9ae1ffc7ff664736f6c63430008140033",
  "linkReferences": {},
  "deployedLinkReferences": {}
}